:02000000312BA2
:06000600000000000800EC
:10000C000F3083120313FC004730FD00FD0B0C284E
:0A001C00FC0B0C2800000000080097
:0E002600213083120313FD00FD0B1728080084
:1000340083120313E51B2028081221280816651BC8
:100044002528881126288815E51A2A2808112B281E
:100054000815651A2F288810302888145818342851
:10006400881635288812081703200813E5193C2838
:1000740008123D2808166519412888114228881558
:10008400E518462808114728081565184B288810D4
:100094004C28881458185028881651288812081794
:1000A40003200813581C5828062059281320080038
:0E00B4008312031355088A00540882000800C6
:1000C2008312031358106408E5001A20581408001C
:1000D200831203130610861406158615061A842841
:1000E2000230FB000430FC00BA30FD00FD0B772823
:1000F200FC0B7728FB0B77280000061A81287E2844
:100102003130F000CD29861A99280230FB000430E4
:10011200FC00BA30FD00FD0B8C28FC0B8C28FB0B7D
:100122008C280000861A962893283230F000CD29B8
:10013200061BAE280230FB000430FC00BA30FD0082
:10014200FD0BA128FC0BA128FB0BA1280000061B1C
:10015200AB28A8283330F000CD29861BC3280230F3
:10016200FB000430FC00BA30FD00FD0BB628FC0B8E
:10017200B628FB0BB6280000861BC028BD284130DC
:10018200F000CD290614861006158615061ADC28FD
:100192000230FB000430FC00BA30FD00FD0BCF281A
:1001A200FC0BCF28FB0BCF280000061AD928D62833
:1001B2003430F000CD29861AF1280230FB000430D9
:1001C200FC00BA30FD00FD0BE428FC0BE428FB0B1D
:1001D200E4280000861AEE28EB283530F000CD29FD
:1001E200061B06290230FB000430FC00BA30FD0079
:1001F200FD0BF928FC0BF928FB0BF9280000061B64
:10020200032900293630F000CD29861B1B29023034
:10021200FB000430FC00BA30FD00FD0B0E29FC0B84
:100222000E29FB0B0E290000861B182915294230C6
:10023200F000CD290614861406118615061A3429F3
:100242000230FB000430FC00BA30FD00FD0B272910
:10025200FC0B2729FB0B27290000061A31292E291E
:100262003730F000CD29861A49290230FB000430CC
:10027200FC00BA30FD00FD0B3C29FC0B3C29FB0BBA
:100282003C290000861A462943293830F000CD293E
:10029200061B5E290230FB000430FC00BA30FD0070
:1002A200FD0B5129FC0B5129FB0B51290000061BA8
:1002B2005B2958293930F000CD29861B7329023079
:1002C200FB000430FC00BA30FD00FD0B6629FC0B7C
:1002D2006629FB0B66290000861B70296D294330B5
:1002E200F000CD290614861406158611061A8C29EB
:1002F2000230FB000430FC00BA30FD00FD0B7F2908
:10030200FC0B7F29FB0B7F290000061A892986290D
:100312002A30F000CD29861AA1290230FB000430D0
:10032200FC00BA30FD00FD0B9429FC0B9429FB0B59
:1003320094290000861A9E299B293030F000CD298D
:10034200061BB6290230FB000430FC00BA30FD0067
:10035200FD0BA929FC0BA929FB0BA9290000061BEF
:10036200B329B0292330F000CD29861BCB290230D6
:10037200FB000430FC00BA30FD00FD0BBE29FC0B73
:10038200BE29FB0BBE290000861BC829C5294430A3
:0A039200F000CD296E30F0000800E5
:10039C0083120313071787137030FB009C30FC008B
:1003AC002130FD00FD0BD829FC0BD829FB0BD829DB
:0603BC000713871308007F
:1003C2004130831203139F001F151F1DE929E629DF
:1003D2001E08F100F00183161E08F0040030F1043B
:0203E200080011
:1003E4008316031308138812881008118811081241
:1003F4008312081388120812881108118810062025
:100404000620062008158814081703200813062060
:1004140008170320081306200817032008130620D2
:100424008810081703200813062008170320081350
:100434000811081608170320081306200812881448
:100444000817032008138810081703200813062030
:10045400081703200813881408170320081306201C
:10046400881008170320081308168815081588141F
:0C04740008170320081306205814080085
:1004800083120313071387177030FB009C30FC00A6
:100490002130FD00FD0B4A2AFC0B4A2AFB0B4A2A9D
:0604A0000713871308009A
:1004A6005A208A110A128000840AD40A0319D50A2E
:0804B600F003031D532A0800A6
:0A04BE00C030831603139F000800EE
:1004C8004930831203139F001F151F1D6C2A692AC8
:1004D8001E08F100F00183161E08F0040030F10434
:0204E80008000A
:1004EA005930831203139F001F151F1D7D2A7A2A74
:1004FA001E08F100F00183161E08F0040030F10412
:02050A000800E7
:10050C006E3083120313E00060086E3A031D922ACA
:0E051C0069207008E0008A2A6008F0000800DC
:10052A006930831203139F001F151F1D9D2A9A2AE3
:10053A001E08F100F00183161E08F0040030F104D1
:02054A000800A7
:10054C005130831203139F001F151F1DAE2AAB2AB7
:10055C001E08F100F00183161E08F0040030F104AF
:02056C00080085
:10056E00053083120313E0006008003C0318DF2AF5
:10057E0087160B30FB002630FC005D30FD00FD0BB6
:10058E00C62AFC0BC62AFB0BC62A000000008712E7
:10059E000B30FB002630FC005D30FD00FD0BD52A34
:1005AE00FC0BD52AFB0BD52A00000000E003BB2A6A
:0205BE00080033
:1005C0006130831203139F001F151F1DE82AE52ABF
:1005D0001E08F100F00183161E08F0040030F1043B
:0205E000080011
:1005E200032B803083120313E000162BC030E0008F
:1005F200162B9430E000162BD430E000162B8030FE
:10060200E000162B831203136008013A0319F22A41
:100612006008023A0319F72A6008033A0319FA2A12
:100622006008043A0319FD2A002B6103F0006008F8
:10063200F0077008E0007008E5001A205810E30186
:10064200630862078400000803192F2B63086207FE
:1006520084000008E4006120E30A212B58140800FA
:100662008024F0308316031386003F3085007F30EC
:10067200810587010130880083128701D8145F2227
:100682000B30FB002630FC005D30FD00FD0B472BDC
:10069200FC0B472BFB0B472B00000000F2210B3019
:1006A200FB002630FC005D30FD00FD0B562BFC0BE1
:1006B200562BFB0B562B000000000130E5001A20E0
:1006C2000C30E5001A208312DA01DB01DC01DD01C6
:1006D200DE01081CEE2B0130E5001A200130E0009B
:1006E2000130E1004A30E200F122D901043059021E
:1006F2000318992B59085A3EDF0086225F088400AE
:10070200700880000230E000590AE1003530E20052
:10071200F1220230FB000430FC00BA30FD00FD0B78
:10072200902BFC0B902BFB0B902B0000D90A772B04
:100732005A08313A031DAA2B5B08323A031DAA2B31
:100742005C08333A031DAA2B5D08343A031DAA2B19
:10075200DB2B5A082A3A031DBB2B5B082A3A031DDE
:10076200BB2B5C082A3A031DBB2B5D082A3A031DEA
:10077200BB2BCE2BD8140130E5001A200130E0004B
:100782000130E1003730E200F1220230E0000130B6
:10079200E1002030E200F122DA2BD8140130E5002A
:1007A2001A200130E0000130E1002930E200F1229C
:1007B2004022EE2BD8100130E5001A200130E00073
:1007C2000130E1003D30E200F1220230E000013070
:1007D200E1004530E200F122CE21D81C382C1B303A
:1007E20087040330FB008A30FC005530FD00FD0B0E
:1007F200F82BFC0BF82BFB0BF82B000000009522CA
:1008020070088312D6007108D70001307102031DEF
:100812000C2CC230700203180F2CB72275227108FB
:10082200003C031D162C7008963C0318192CB722A5
:10083200A6227108003C031D202C7008C83C031836
:10084200232CB72264227108003C031D2A2C700855
:10085200963C03182D2CB722E1217108003C031DA0
:10086200342C7008963C0318372CB7223B2C831289
:1008720000308705E02200307102031D422C6430F3
:0C08820070020318452CB722642B462C92
:1009000020308400343083120313F0004C30D400C4
:080910000430D5005322080059
:10089800503461347334733477346F34723464345D
:0208A80000341A
:1008AA005334653463347534723469347434793446
:0808BA0020344F346E34003489
:0408C2002A340034A0
:0C08C600573472346F346E3467340034E1
:1008D200573465346C3463346F346D3465340034AA
:0A08E20048346F346D34653400347F
:1008EC00503461347334733477346F347234643409
:0408FC003A34003456
:02400E004A2F37
:00000001FF
